:100000000C9463000C948B000C948B000C948B006C
:100010000C948B000C948B000C948B000C948B0034
:100020000C948B000C948B000C948B000C944E075A
:100030000C948B000C948B000C948B000C948B0014
:100040000C94FD080C948B000C941C070C94F60681
:100050000C948B000C948B000C948B000C948B00F4
:100060000C948B000C948B000000000024002700EF
:100070002A000000000023002600290000000008DC
:10008000000201000003040700000000000000005F
:10009000010204081020408001020408102001021F
:1000A0000408102000000000250028002B00040494
:1000B0000404040404040202020202020303030310
:1000C0000303CA0C5A0911241FBECFEFD8E0DEBFCC
:1000D000CDBF11E0A0E0B1E0E8EBF2E202C0059094
:1000E0000D92AC31B107D9F723E0ACE1B1E001C02A
:1000F0001D92A831B207E1F710E0C2E6D0E004C0DB
:100100002197FE010E94070FC136D107C9F70E944F
:1001100072090C944F110C94000080E397E09093C7
:100120001E0180931D01089583E294E090931E01C7
:1001300080931D010895CF92DF92EF92FF920F936B
:100140001F93CF93DF936C017A018B01C0E0D0E065
:10015000CE15DF0581F0D8016D918D01D601ED91AD
:10016000FC910190F081E02DC6010995892B11F0D9
:100170002196EECF7E01C701DF91CF911F910F91A4
:10018000FF90EF90DF90CF900895089580E090E089
:100190000895FC01538D448D252F30E0842F90E08D
:1001A000821B930B541710F0CF9608950197089572
:1001B000FC01918D828D981761F0828DDF01A80F6F
:1001C000B11D5D968C91928D9F5F9F73928F90E091
:1001D00008958FEF9FEF0895FC01918D828D981700
:1001E00031F0828DE80FF11D858D90E008958FEF3D
:1001F0009FEF0895FC01918D228D892F90E0805C06
:100200009F4F821B91098F739927089583E991E08D
:100210000E94FA0021E0892B09F420E0822F089542
:10022000FC01848DDF01A80FB11DA35ABF4F2C9193
:10023000848D90E001968F739927848FA689B78962
:100240002C93A089B1898C91837080648C93938D59
:10025000848D981306C00288F389E02D80818F7DFC
:1002600080830895EF92FF920F931F93CF93DF93B4
:10027000EC0181E0888F9B8D8C8D981305C0E889F7
:10028000F989808185FD26C0F62E0B8D10E00F5F69
:100290001F4F0F731127E02E8C8DE8120CC00FB684
:1002A00007FCFACFE889F989808185FFF5CFCE0177
:1002B0000E941001F1CF8B8DFE01E80FF11DE35A72
:1002C000FF4FF0829FB7F8940B8FEA89FB898081FA
:1002D00080620AC09FB7F894EE89FF896083E8893D
:1002E000F98980818370806480839FBF81E090E082
:1002F000DF91CF911F910F91FF90EF900895CF93D1
:10030000DF93EC01888D8823C9F0EA89FB8980811D
:1003100085FD05C0A889B9898C9186FD0FC00FB6EF
:1003200007FCF5CF808185FFF2CFA889B9898C9130
:1003300085FFEDCFCE010E941001E7CFDF91CF9175
:10034000089580E090E0892B29F00E940601811138
:100350000C94000008950F931F93DC0112968D9169
:100360009C9113976817790708F043C018968C91F1
:100370001897882361F0489FA0011124452F829F80
:1003800090011124232F809F80011124012F1E969C
:100390008C911E971B969C911B971996ED91FC9141
:1003A0001A97891308C0CB01880F991F680F791F0E
:1003B0006E0F7F1F0AC0660F771F660F771F6E0FC5
:1003C0007F1FFB01E80FF11D10821B968C911B977C
:1003D000FB01E80FF11D40831C968C911C97FB01DB
:1003E000E80FF11D20831D968C91FB01E80FF11D94
:1003F00000831F910F910895FC0190819C3088F536
:10040000818128E830E0281B310987FD3395220FD0
:10041000331F220F331F6217730784F0828148E570
:1004200052E0481B510987FD5395440F551F440F57
:10043000551F9B01461757070CF49A0122503109AA
:10044000220F331F4FB7F894892F90E0FC01EE0F75
:10045000FF1F8E0F9F1FFC01E05EFE4F3283218342
:100460004FBF0895892B79F41092800082E0809329
:1004700081001092850010928400B19A80916F00E3
:10048000826080936F0008951F93CF93DF93EC01F8
:10049000162F89819A81DC01ED91FC910190F08108
:1004A000E02D62E0099589819A81DC01ED91FC9152
:1004B0000190F081E02D612F099589819A81DC01FD
:1004C000ED91FC910190F081E02D6881099581E02A
:1004D000DF91CF911F910895809158018823B1F148
:1004E000E0914801F0E0CF01880F991FE80FF91F54
:1004F000E05EFE4F80818F7B8083E0914C01F0E0D5
:10050000CF01880F991FE80FF91FE05EFE4F808131
:100510008F7B8083E0915001F0E0CF01880F991F1D
:10052000E80FF91FE05EFE4F80818F7B8083E091B2
:100530005401F0E0CF01880F991FE80FF91FE05E2A
:10054000FE4F80818F7B80831092580110921F0193
:1005500008950F931F93CF93DF931F92CDB7DEB70C
:1005600084E0898300E911E0D80111968D919C9176
:100570001297DC01ED91FC910190F081E02D63E098
:100580000995F80181819281DC01ED91FC91019046
:10059000F081E02D62E00995F80181819281DC0112
:1005A000ED91FC910280F381E02D41E050E0BE012D
:1005B0006F5F7F4F0995F80181819281DC01ED9198
:1005C000FC910190F081E02DD8016C9109950F907C
:1005D000DF91CF911F910F910895CF92DF92EF920B
:1005E000FF920F931F93CF93DF93CDB7DEB7299779
:1005F0000FB6F894DEBF0FBECDBF8C01DC0119969B
:100600008D919C911A97892B09F4B7C0F801C78482
:10061000D088E188F2880E94CC086C157D058E0593
:100620009F0548F40E94CC08D8011F966D937D93D6
:100630008D939C9352970E94CC08F801C784D08870
:10064000E188F288DC01CB018C199D09AE09BF0954
:100650008C329140A105B105C8F2D80114968D9154
:100660009C9115979A8389831996ED91FC911A971D
:100670007F01BFEFEB1AFB0A80818987F801908127
:100680000388F489E02DD80155968C91992309F4BB
:1006900030C09081982B98879081809589238F8393
:1006A0008F818C8388E08B8358856F8149853B815E
:1006B0002C8189819A81D701508347FD252F3A9556
:1006C0002083262F39F0441F00C000006083000003
:1006D00000C0F2CF38E04D9160830000019761F7D0
:1006E000D8015496FC93EE93539749873B832C8310
:1006F0003AC09081982B98879081809589238F8329
:100700008F818E8388E08D8358856F8149853D81F7
:100710002E8189819A81D701508347FD252F00C002
:1007200000C0208300C000C000C000C000C06083C3
:100730000000262F3A9541F0441F000000C000C081
:1007400000C000C000C0E8CF38E04D9100C0608319
:1007500000C0019709F7D8015496FC93EE93539784
:1007600049873D832E839A83898378940E94CC089D
:10077000F8016787708B818B928B29960FB6F8945E
:10078000DEBF0FBECDBFDF91CF911F910F91FF90C4
:10079000EF90DF90CF900895EF92FF920F93CF9359
:1007A000DF93FC018081823009F464C058F488230F
:1007B00009F443C0813009F09FC0C0E0DFECE12CB8
:1007C000F12C0DC0843009F476C008F470C0853077
:1007D00009F092C0C0E0DFECE12CF12C6FC00C2FCF
:1007E0002D2F40E0B70183EB92E00E94AB012D2F4B
:1007F00040E0B7018DE992E00E94AB012D2F40E06F
:10080000B70187E892E00E94AB01FFEFEF1AFF0A01
:10081000DC5FCD5FC43219F783EB92E00E94ED02FA
:100820008DE992E00E94ED0287E892E0DF91CF919E
:100830000F91FF90EF900C94ED02C0E0D0E00FEF2D
:100840002FEF4FEFBE0183EB92E00E94AB012FEF41
:100850004FEFBE018DE992E00E94AB012FEF4FEF09
:10086000BE0187E892E00E94AB012196CC30D10511
:1008700031F7D2CFC0E0D0E000E020E040E0BE01A0
:1008800083EB92E00E94AB0120E040E0BE018DE9E5
:1008900092E00E94AB0120E040E0BE0187E892E0D8
:1008A0000E94AB012196CC30D10531F7B5CF81E064
:1008B00080937A0121C010927A011EC000E02C2F93
:1008C0004D2FB70183EB92E00E94AB012C2F4D2FEF
:1008D000B7018DE992E00E94AB012C2F4D2FB7019B
:1008E00087E892E00E94AB018FEFE81AF80ADC5F1C
:1008F000CD5FC43219F790CFDF91CF910F91FF9068
:10090000EF9008952F923F924F925F926F927F9255
:100910008F929F92AF92BF92CF92DF92EF92FF920F
:100920000F931F93CF93DF9300D000D01F92CDB7CA
:10093000DEB79B838A83FC01608051804280F48112
:10094000F983FC01158176802085318542855385A8
:1009500066E676E686E191E40E940D0F4B015C01AC
:100960002BE734E146E251E4EA81FB816485758539
:10097000868597850E940E0F6B017C0121EE3AE778
:1009800044ED5FE3C501B4010E947A0F0E94EC0FB1
:100990004B015C017B836A8321EE3AE744ED5FE320
:1009A000C701B6010E947A0F0E94EC0F6B017C0117
:1009B0001B011D821C820FEF2FEF4FEF6C817D8199
:1009C0008FED92E00E94AB012FEF4FEF6C817D81A4
:1009D00089EC92E00E94AB018C819D8101969D8300
:1009E0008C83469741F7042D252D462DB4018FEDBC
:1009F00092E00E94AB01072D212F4981B60189ECBD
:100A000092E00E94AB01EA81FB811E161F0654F49E
:100A1000042D252D462DB401615071098FED92E012
:100A20000E94AB011214130454F4072D212F4981A5
:100A3000B6016150710989EC92E00E94AB018A8194
:100A40009B81469754F4B4016F5F7F4F042D252D91
:100A5000462D8FED92E00E94AB0196E129163104FC
:100A600054F4B6016F5F7F4F072D212F498189EC28
:100A700092E00E94AB018FED92E00E94ED0289ECC2
:100A800092E00F900F900F900F900F90DF91CF9109
:100A90001F910F91FF90EF90DF90CF90BF90AF909C
:100AA0009F908F907F906F905F904F903F902F908E
:100AB0000C94ED02EF92FF920F931F93CF93DF936D
:100AC000FC011081F180E280838110936E01F0922D
:100AD0006F01E09270018D3F11F481E01BC08C3FEB
:100AE000C1F0C0E0D0E00E2D2F2D412FBE0185EFCB
:100AF00092E00E94AB012196C331D105A1F785EFA9
:100B000092E0DF91CF911F910F91FF90EF900C94A5
:100B1000ED0282E080936D01DF91CF911F910F91E3
:100B2000FF90EF9008950E944311CF93DF93EC0163
:100B30008E819F8197FD07C061E00E94900860E070
:100B40008E810E94610881E08983DF91CF910895B1
:100B5000EF92FF920F931F93CF93DF9380911F012A
:100B6000811193C0C8E4D1E008E511E08CE0F82ED3
:100B700088818C3008F043C0EB8061E08E2D0E94AC
:100B800090088881E82FF0E09F01220F331FE20FC9
:100B9000F31FE05EFE4F9E2D9F732081207CE22E8E
:100BA000E92AE08219821A826F2D0E94FB0E9CE0D6
:100BB000899FB001112440E050E09B01240F351FB4
:100BC000F901EE0FFF1F2E0F3F1FF901E05EFE4FF0
:100BD000908196FD08C04F5F5F4F4C30510569F71B
:100BE00090E00E943202E881F0E0CF01880F991F67
:100BF000E80FF91FE05EFE4F8081806480832496B9
:100C00000C171D0709F0B4CF89EB9FEDA0EEB2E4FD
:100C10008093800190938101A0938201B09383011E
:100C20008093840190938501A0938601B0938701FE
:100C30008093880190938901A0938A01B0938B01DE
:100C400080938C0190938D01A0938E01B0938F01BE
:100C500060E08EE00E94900860E08FE00E949008C3
:100C600060E080E10E94900860E081E10E949008CD
:100C700061E08DE00E94900860E08DE00E946108D4
:100C800081E08093580180931F01DF91CF911F91E4
:100C90000F91FF90EF9008952F923F924F925F92A5
:100CA0006F927F928F929F92AF92BF92CF92DF927C
:100CB000EF92FF920F931F93CF93DF93CDB7DEB7E1
:100CC00060970FB6F894DEBF0FBECDBFFC018091D8
:100CD0001F01882309F471C0603109F06EC090E1F2
:100CE000DE01119601900D929A95E1F780915801DD
:100CF000882309F462C008E411E0CE0101967C016A
:100D000028E5222E21E0322E38E8C32ED12C44EBE8
:100D1000442E512C612C712CF701619171918191BC
:100D200091917F010E94EC0F6032F2E07F07E4F5C1
:100D300077FD06C0653B71052CF064EB70E002C0E6
:100D400060E070E0F80181819601281B310987FD80
:100D50003395220F331F220F331F4901330FAA0887
:100D6000BB08828128E532E0281B310987FD3395D5
:100D7000220F331F220F331FC901330FAA0BBB0BE6
:100D80009C01AD01281939094A095B09DB010E9460
:100D9000C20EA30192010E94980EDA01C901880DCA
:100DA000991DAA1DBB1DBC01C8010E94FC010C5F5E
:100DB0001F4F2016310609F0AFCF60960FB6F8949A
:100DC000DEBF0FBECDBFDF91CF911F910F91FF907E
:100DD000EF90DF90CF90BF90AF909F908F907F90DB
:100DE0006F905F904F903F902F9008951F920F92B9
:100DF0000FB60F9211242F933F934F935F936F93EE
:100E00007F938F939F93AF93BF93EF93FF9383E968
:100E100091E00E941001FF91EF91BF91AF919F91DE
:100E20008F917F916F915F914F913F912F910F9093
:100E30000FBE0F901F9018951F920F920FB60F9232
:100E400011242F938F939F93EF93FF93E091A3012E
:100E5000F091A4018081E091A901F091AA0182FDA5
:100E600012C090818091AC018F5F8F732091AD0192
:100E7000821751F0E091AC01F0E0ED56FE4F958FF6
:100E80008093AC0101C08081FF91EF919F918F9180
:100E90002F910F900FBE0F901F9018951F920F92D9
:100EA0000FB60F9211242F933F934F935F936F933D
:100EB0007F938F939F93AF93BF93EF93FF93809113
:100EC0001C0187FF05C010928500109284001BC092
:100ED00020911C01022E000C330B8091440190E004
:100EE0002817390784F480911C01082E000C990BF7
:100EF000FC01EE0FFF1F8E0F9F1FFC01E05EFE4FF7
:100F0000808186FD15C080911C018F5F80931C013C
:100F100020911C01022E000C330B8091440190E0C3
:100F200028173907C4F480911C018C3064F113C078
:100F300080911C01082E000C990BFC01EE0FFF1F85
:100F40008E0F9F1FFC01E05EFE4F808160E08F737B
:100F50000E946108D8CF809184009091850004960A
:100F600080349C4918F480E49CE905C08091840099
:100F700090918500049690938900809388008FEF6C
:100F800080931C013BC020918400309185008091AA
:100F90001C01082E000C990BFC01EE0FFF1F8E0F99
:100FA0009F1FFC01E05EFE4F81819281820F931FA3
:100FB000909389008093880080911C01082E000C7A
:100FC000990BFC01EE0FFF1F8E0F9F1FFC01E05ECF
:100FD000FE4F808186FF12C080911C01082E000CFC
:100FE000990BFC01EE0FFF1F8E0F9F1FFC01E05EAF
:100FF000FE4F808161E08F730E946108FF91EF9145
:10100000BF91AF919F918F917F916F915F914F9120
:101010003F912F910F900FBE0F901F901895833026
:1010200081F028F4813099F08230A1F00895873062
:10103000A9F08830B9F08430D1F4809180008F7DA0
:1010400003C0809180008F7780938000089584B5DD
:101050008F7702C084B58F7D84BD08958091B000E4
:101060008F7703C08091B0008F7D8093B00008958A
:10107000CF93DF93282F30E0F901E458FF4F84919C
:10108000F901E057FF4FD491F901E255FF4FC491A8
:10109000CC2391F081110E940F08EC2FF0E0EE0FAD
:1010A000FF1FEE58FF4FA591B491EC91ED2381E025
:1010B00090E021F480E002C080E090E0DF91CF91E9
:1010C00008951F93CF93DF93282F30E0F901E45860
:1010D000FF4F8491F901E057FF4FD491F901E25598
:1010E000FF4FC491CC23C1F0162F81110E940F082D
:1010F000EC2FF0E0EE0FFF1FEC55FF4FA591B491E0
:101100009FB7F894111104C08C91D095D82302C0D8
:10111000EC91DE2BDC939FBFDF91CF911F9108955F
:10112000CF93DF9390E0FC01E057FF4F2491FC0147
:10113000E255FF4F8491882361F190E0880F991F59
:10114000FC01E859FF4FC591D491FC01EC55FF4FCC
:10115000A591B491611109C09FB7F8948881209539
:1011600082238883EC912E230BC0623061F49FB7F9
:10117000F8948881322F309583238883EC912E2B2D
:101180002C939FBF06C08FB7F894E8812E2B28833D
:101190008FBFDF91CF9108953FB7F89480911003EE
:1011A00090911103A0911203B091130326B5A89B4F
:1011B00005C02F3F19F00196A11DB11D3FBFBA2FE9
:1011C000A92F982F8827820F911DA11DB11DBC0149
:1011D000CD0142E0660F771F881F991F4A95D1F70E
:1011E00008952FB7F89460910C0370910D038091CE
:1011F0000E0390910F032FBF08951F920F920FB609
:101200000F9211242F933F938F939F93AF93BF938C
:1012100080910C0390910D03A0910E03B0910F03E8
:1012200030910B0323E0230F2D3720F40196A11DED
:10123000B11D05C026E8230F0296A11DB11D209304
:101240000B0380930C0390930D03A0930E03B093B4
:101250000F038091100390911103A0911203B0919C
:1012600013030196A11DB11D8093100390931103E8
:10127000A0931203B0931303BF91AF919F918F91ED
:101280003F912F910F900FBE0F901F901895CF9305
:10129000DF93EC0189859A850E94BA108E819F8127
:1012A00097FD05C060E0DF91CF910C949008DF912D
:1012B000CF91089587E892E00E9447098DE992E076
:1012C0000E94470983EB92E00E94470989EC92E073
:1012D0000E9447098FED92E00E94470985EF92E056
:1012E0000C944709789484B5826084BD84B581608C
:1012F00084BD85B5826085BD85B5816085BD8091E1
:101300006E00816080936E00109281008091810058
:101310008260809381008091810081608093810050
:10132000809180008160809380008091B100846012
:101330008093B1008091B00081608093B000809173
:101340007A00846080937A0080917A008260809332
:101350007A0080917A00816080937A0080917A008F
:10136000806880937A001092C100E091A301F0910F
:10137000A40182E08083E0919F01F091A00110829E
:10138000E091A101F091A2018FEC80831092AB015A
:10139000E091A701F091A80186E08083E091A5018A
:1013A000F091A601808180618083E091A501F09198
:1013B000A601808188608083E091A501F091A6015B
:1013C000808180688083E091A501F091A6018081F1
:1013D0008F7D808389EA92E0909336028093350274
:1013E00088EA95E090933802809337028CE692E089
:1013F00090933A02809339028CE496E090933C02F9
:1014000080933B028DE890E090933E0280933D02F2
:1014100084E990E09093400280933F028AE595E052
:10142000909342028093410282E894E090934402B8
:10143000809343028CEC93E09093460280934502A4
:1014400085EF92E00E94950585EF92E00E94ED0203
:101450008FED92E00E9495058FED92E00E94ED02E3
:1014600089EC92E00E94950589EC92E00E94ED02E1
:1014700083EB92E00E94950583EB92E00E94ED02DF
:101480008DE992E00E9495058DE992E00E94ED02BF
:1014900087E892E00E94950587E892E00E94ED02BD
:1014A00061E082E00E94900869E080E090E00E94A4
:1014B000A805809145018C3008F043C061E08BE0C5
:1014C0000E94900880914501E82FF0E09F01220FD3
:1014D000331FE20FF31FE05EFE4F9081907C9B6014
:1014E000908310924601109247016CE00E94FB0E1F
:1014F0002CE0829FB001112440E050E09B01240FBA
:10150000351FF901EE0FFF1F2E0F3F1FF901E05E9F
:10151000FE4F908196FD08C04F5F5F4F4C305105E4
:1015200069F790E00E943202E0914501F0E0CF01BE
:10153000880F991FE80FF91FE05EFE4F80818064DD
:101540008083EE24E394F12C61E082E00E94610844
:101550008091320290913302009719F0019709F1BE
:101560007BC08091300290913102DC01ED91FC91C1
:101570000084F185E02D0995892B09F46FC08091D5
:10158000300290913102DC01ED91FC910284F385EF
:10159000E02D099580933402F0923302E0923202FA
:1015A000D7CF8091300290913102DC01ED91FC9116
:1015B0000084F185E02D0995C0903402D12C8C1562
:1015C0009D050CF44BC0C0913002D091310200E374
:1015D00012E0C801805392408C159D0598F0E0916F
:1015E0004702F0E0EE0FFF1FE05DFD4F0580F68142
:1015F000E02D309761F160913402615088E492E00F
:10160000099525C00E94F108688779878A879B879A
:10161000E881F9810284F385E02DCE01099597FFD9
:101620009EC10E94F10888849984AA84BB84DC014D
:10163000CB0188199909AA09BB098C809D80AE80CD
:10164000BF8088159905AA05BB0510F3C8CF109275
:101650003302109232027CCF0E94431160E082E09C
:101660000E94610880911F01882309F464C18EE003
:101670000E943808892B59F460E0809159019091BB
:101680005A010E94440261E08DE00E94610880914D
:101690006D01813009F05EC00E94F108609368011D
:1016A0007093690180936A0190936B0100916401CA
:1016B000109165012091660130916701DC01CB0139
:1016C000801B910BA20BB30B8D329140A105B1058C
:1016D00008F459C080916C01C0E0D0E0811117C0BE
:1016E0000091700120916F0140916E01BE0185EF64
:1016F00092E00E94AB012196C331D10589F785EFB5
:1017000092E00E94ED0281E080936C0112C000E043
:1017100020E040E0BE0185EF92E00E94AB012196FF
:10172000C331D105A1F785EF92E00E94ED0210923E
:101730006C018091680190916901A0916A01B0915A
:101740006B018093640190936501A0936601B0934F
:10175000670119C08230B9F4C0E0D0E00091700197
:1017600020916F0140916E01BE0185EF92E00E94D1
:10177000AB012196C331D10589F785EF92E00E9434
:10178000ED0210926D0180917A01882309F494C0D2
:101790000E94F10860937501709376018093770140
:1017A0009093780100917101109172012091730161
:1017B00030917401DC01CB01801B910BA20BB30BA8
:1017C00085369105A105B10508F476C080917901AF
:1017D000811131C0C0E0DFECC12CD12C0C2F2D2F9A
:1017E00040E0B60183EB92E00E94AB012D2F40E078
:1017F000B6018DE992E00E94AB012D2F40E0B601C9
:1018000087E892E00E94AB01FFEFCF1ADF0ADC5FAE
:10181000CD5FC43219F783EB92E00E94ED028DE9AF
:1018200092E00E94ED0287E892E00E94ED0281E0E2
:101830008093790131C0C0E0D0E000E020E040E0DA
:10184000BE0185EF92E00E94AB0120E040E0BE01C6
:1018500083EB92E00E94AB0120E040E0BE018DE905
:1018600092E00E94AB0120E040E0BE0187E892E0F8
:101870000E94AB012196CC30D105F9F683EB92E0C2
:101880000E94ED028DE992E00E94ED0287E892E06D
:101890000E94ED021092790180917501909176017C
:1018A000A0917701B09178018093710190937201BA
:1018B000A0937301B093740180915B01882301F1BF
:1018C0000E94F1086093600170936101809362014E
:1018D0009093630100915C0110915D0120915E0184
:1018E00030915F01DC01CB01801B910BA20BB30B8C
:1018F0008D3B9240A105B105B0F010925B0113C081
:101900008FE00E943808892B81F180E10E9438081D
:10191000892B59F181E10E943808892B31F180919E
:101920005B018111CDCF60911D0170911E0185E495
:1019300091E00E94FC010E94CC084B015C010E94D6
:10194000CC08DC01CB0188199909AA09BB09883E9A
:101950009340A105B10598F30E94A101F5CDD801EE
:1019600057968C930F5F1F4F34CE61E080915901E1
:1019700090915A010E94440281E080935B010E9491
:10198000F10860935C0170935D0180935E01909318
:101990005F01C5CFCF93DF93C3E9D1E010929601E9
:1019A0001092950188EE93E0A0E0B0E0809397015B
:1019B00090939801A0939901B0939A018AE091E0E5
:1019C000909394018093930185EC90E09093A00113
:1019D00080939F0184EC90E09093A2018093A101F9
:1019E00080EC90E09093A4018093A30181EC90E0BF
:1019F0009093A6018093A50182EC90E09093A801BA
:101A00008093A70186EC90E09093AA018093A901AE
:101A10001092AC011092AD011092AE011092AF0184
:101A200047E050E063E170E085EF92E00E94ED0D49
:101A300042E150E066E170E08FED92E00E94ED0D32
:101A40004CE050E066E170E089EC92E00E94ED0D20
:101A500048E050E06CE070E083EB92E00E94ED0D16
:101A600049E050E06CE070E08DE992E00E94ED0DFD
:101A700044E050E06CE070E087E892E00E94ED0DF9
:101A8000D0933102C093300210923302109232028E
:101A90001092340282E1E5E3F2E0DF011D928A95C3
:101AA000E9F710929001D0939201C0939101809137
:101AB0004401A8E4B1E09FEF48EB5BE08C3078F4A0
:101AC0008C93282F30E0F901EE0FFF1F2E0F3F1FE0
:101AD000F901E05EFE4F528341838F5F01C09C930A
:101AE000149621E0A835B20749F78093440110927B
:101AF000580110925B0110925C0110925D011092EE
:101B00005E0110925F0110926001109261011092CB
:101B100062011092630110926401109265011092AB
:101B2000660110926701109268011092690110928B
:101B30006A0110926B0110926C0110926D0110926B
:101B40006E0110926F01109270011092710110924B
:101B5000720110927301109274011092750110922B
:101B6000760110927701109278011092790110920B
:101B70007A0110927B0110927C0110927D0193E01A
:101B800090934B019AE090934F0195E0909353010D
:101B900096E09093570120E931E030935A01209369
:101BA00059018C30A0F491E0980F909344018093F8
:101BB000450190E0FC01EE0FFF1F8E0F9F1FFC01FF
:101BC000E05EFE4F88EB9BE09283818303C08FEF42
:101BD00080934501DF91CF910895CF92DF92EF92EC
:101BE000FF920F931F93CF93DF93EC016B018A0158
:101BF000198218861F86188A198A1A8A81E08E87A8
:101C00008B871C8692E09D8788837B01EE0CFF1CEE
:101C1000E60EF71EFD82EC82C7010E9422109A8711
:101C20008987009741F0A70160E070E00E944811A9
:101C3000DB82CA8204C01D821C821B821A821F831F
:101C40000E838981882341F061E0802F0E949008F3
:101C500060E0802F0E946108F801E255FF4FE49197
:101C6000F0E0EE0FFF1FEC55FF4F859194919C8B98
:101C70008B8BF801E057FF4FE491ED8BDF91CF9113
:101C80001F910F91FF90EF90DF90CF90089597F9FB
:101C90009F6780E870E060E008959FEF80EC089512
:101CA00000240A941616170618060906089500243B
:101CB0000A9412161306140605060895092E0394B5
:101CC000000C11F4882352F0BB0F40F4BF2B11F429
:101CD00060FF04C06F5F7F4F8F4F9F4F089557FD88
:101CE0009058440F551F59F05F3F71F04795880F8A
:101CF00097FB991F61F09F3F79F087950895121621
:101D000013061406551FF2CF4695F1DF08C01616CC
:101D100017061806991FF1CF86957105610508947D
:101D20000895E894BB2766277727CB0197F9089594
:101D3000052E97FB1EF400940E94AF0E57FD07D0AE
:101D40000E94CA0E07FC03D04EF40C94AF0E5095BF
:101D50004095309521953F4F4F4F5F4F0895909597
:101D60008095709561957F4F8F4F9F4F08950E948A
:101D7000EC0EA59F900DB49F900DA49F800D911D1A
:101D800011240895B7FF0C94B70E0E94B70E821B62
:101D9000930B0895A1E21A2EAA1BBB1BFD010DC0D7
:101DA000AA1FBB1FEE1FFF1FA217B307E407F5070B
:101DB00020F0A21BB30BE40BF50B661F771F881FE7
:101DC000991F1A9469F760957095809590959B017D
:101DD000AC01BD01CF010895A29FB001B39FC00126
:101DE000A39F700D811D1124911DB29F700D811D47
:101DF0001124911D0895991B79E004C0991F96172D
:101E000008F0961B881F7A95C9F780950895EE0F04
:101E1000FF1F0590F491E02D09945058BB27AA2785
:101E20000E94250F0C945E0E0E94500E38F00E9406
:101E3000570E20F039F49F3F19F426F40C944D0E00
:101E40000EF4E095E7FB0C94470EE92F0E946F0E0D
:101E500058F3BA17620773078407950720F079F4DF
:101E6000A6F50C94910E0EF4E0950B2EBA2FA02D32
:101E70000B01B90190010C01CA01A0011124FF2737
:101E8000591B99F0593F50F4503E68F11A16F04032
:101E9000A22F232F342F4427585FF3CF4695379531
:101EA0002795A795F0405395C9F77EF41F16BA0BF6
:101EB000620B730B840BBAF09150A1F0FF0FBB1FA4
:101EC000661F771F881FC2F70EC0BA0F621F731FED
:101ED000841F48F4879577956795B795F7959E3F4A
:101EE00008F0B0CF9395880F08F09927EE0F9795DB
:101EF000879508950E948E0F0C945E0E0E94570ED7
:101F000058F00E94500E40F029F45F3F29F00C94E5
:101F1000470E51110C94920E0C944D0E0E946F0EB0
:101F200068F39923B1F3552391F3951B550BBB2708
:101F3000AA2762177307840738F09F5F5F4F220F4D
:101F4000331F441FAA1FA9F335D00E2E3AF0E0E844
:101F500032D091505040E695001CCAF72BD0FE2F8E
:101F600029D0660F771F881FBB1F26173707480722
:101F7000AB07B0E809F0BB0B802DBF01FF279358DA
:101F80005F4F3AF09E3F510578F00C94470E0C9449
:101F9000920E5F3FE4F3983ED4F38695779567956C
:101FA000B795F7959F5FC9F7880F911D969587950F
:101FB00097F90895E1E0660F771F881FBB1F62172E
:101FC00073078407BA0720F0621B730B840BBA0BEC
:101FD000EE1F88F7E09508950E94F30F6894B11101
:101FE0000C94920E08950E94770E88F09F5798F0F7
:101FF000B92F9927B751B0F0E1F0660F771F881F0E
:10200000991F1AF0BA95C9F714C0B13091F00E9427
:10201000910EB1E008950C94910E672F782F8827C8
:10202000B85F39F0B93FCCF3869577956795B3954E
:10203000D9F73EF490958095709561957F4F8F4FBD
:102040009F4F08950F931F93CF93DF938230910595
:1020500010F482E090E0E0911603F091170320E085
:1020600030E0A0E0B0E0309719F140815181028169
:10207000138148175907C8F08417950769F410971A
:1020800031F012960C93129713961C9327C000936D
:1020900016031093170322C02115310519F04217BA
:1020A000530718F49A01BD01EF01DF01F801DBCFFE
:1020B00021153105F9F0281B390B2430310580F446
:1020C0008A819B816115710521F0FB0193838283D5
:1020D00004C09093170380931603FE01329644C008
:1020E000FE01E20FF31F819391932250310939834E
:1020F00028833AC02091140330911503232B41F417
:1021000020910201309103013093150320931403B1
:1021100020910001309101012115310541F42DB7C5
:102120003EB74091040150910501241B350BE0910D
:102130001403F0911503E217F307A0F42E1B3F0BD5
:102140002817390778F0AC014E5F5F4F2417350729
:1021500048F04E0F5F1F5093150340931403819373
:10216000919302C0E0E0F0E0CF01DF91CF911F91A9
:102170000F910895CF93DF93009709F481C0FC017C
:10218000329713821282A0911603B0911703109711
:1021900081F420813181820F931F209114033091AB
:1021A00015032817390751F5F0931503E09314032D
:1021B00067C0ED0120E030E0CE17DF0740F44A8130
:1021C0005B819E0141155105F1F0EA01F5CFD38302
:1021D000C28340815181840F951FC817D90759F4D4
:1021E00088819981840F951F0296918380838A81CB
:1021F0009B81938382832115310529F4F093170382
:10220000E09316033DC0E901FB83EA8349915991AC
:10221000C40FD51FEC17FD0761F480819181840FF5
:10222000951F0296E90199838883828193819B831C
:102230008A83E0E0F0E012968D919C9113970097CD
:1022400019F0FD01DC01F7CF8D919C9111979D0153
:102250002E5F3F4F820F931F20911403309115037F
:102260002817390769F4309729F410921703109250
:10227000160302C013821282B0931503A0931403B5
:10228000DF91CF91089581E090E0F8940C944F1184
:10229000DC0101C06D9341505040E0F7089510E01B
:1022A000C2E6D0E004C0FE010E94070F2196C336AB
:0822B000D107C9F7F894FFCF34
:1022B8000000180320000000000032019B00C90044
:0C22C8007F01FA00D800EC00030A0506B4
:00000001FF
